{
  "_format": "hh-sol-artifact-1",
  "contractName": "BTCMiner",
  "sourceName": "contracts/BTCMiner.sol",
  "abi": [
    {
      "inputs": [
        {
          "internalType": "address",
          "name": "_lzEndpoint",
          "type": "address"
        },
        {
          "internalType": "string",
          "name": "_name",
          "type": "string"
        },
        {
          "internalType": "string",
          "name": "_symbol",
          "type": "string"
        }
      ],
      "stateMutability": "nonpayable",
      "type": "constructor"
    },
    {
      "anonymous": false,
      "inputs": [
        {
          "indexed": true,
          "internalType": "address",
          "name": "owner",
          "type": "address"
        },
        {
          "indexed": true,
          "internalType": "address",
          "name": "spender",
          "type": "address"
        },
        {
          "indexed": false,
          "internalType": "uint256",
          "name": "value",
          "type": "uint256"
        }
      ],
      "name": "Approval",
      "type": "event"
    },
    {
      "anonymous": false,
      "inputs": [
        {
          "indexed": true,
          "internalType": "uint16",
          "name": "_srcChainId",
          "type": "uint16"
        },
        {
          "indexed": false,
          "internalType": "bytes",
          "name": "_srcAddress",
          "type": "bytes"
        },
        {
          "indexed": false,
          "internalType": "uint64",
          "name": "_nonce",
          "type": "uint64"
        },
        {
          "indexed": false,
          "internalType": "bytes32",
          "name": "_hash",
          "type": "bytes32"
        }
      ],
      "name": "CallOFTReceivedSuccess",
      "type": "event"
    },
    {
      "anonymous": false,
      "inputs": [
        {
          "indexed": true,
          "internalType": "address",
          "name": "from",
          "type": "address"
        },
        {
          "indexed": true,
          "internalType": "uint16",
          "name": "dstChainId",
          "type": "uint16"
        },
        {
          "indexed": true,
          "internalType": "bytes",
          "name": "to",
          "type": "bytes"
        },
        {
          "indexed": false,
          "internalType": "uint256",
          "name": "amount",
          "type": "uint256"
        }
      ],
      "name": "CrossChainTransfer",
      "type": "event"
    },
    {
      "anonymous": false,
      "inputs": [
        {
          "indexed": false,
          "internalType": "uint256",
          "name": "newLimit",
          "type": "uint256"
        }
      ],
      "name": "DailyBurnLimitUpdated",
      "type": "event"
    },
    {
      "anonymous": false,
      "inputs": [
        {
          "indexed": false,
          "internalType": "uint16",
          "name": "_srcChainId",
          "type": "uint16"
        },
        {
          "indexed": false,
          "internalType": "bytes",
          "name": "_srcAddress",
          "type": "bytes"
        },
        {
          "indexed": false,
          "internalType": "uint64",
          "name": "_nonce",
          "type": "uint64"
        },
        {
          "indexed": false,
          "internalType": "bytes",
          "name": "_payload",
          "type": "bytes"
        },
        {
          "indexed": false,
          "internalType": "bytes",
          "name": "_reason",
          "type": "bytes"
        }
      ],
      "name": "MessageFailed",
      "type": "event"
    },
    {
      "anonymous": false,
      "inputs": [
        {
          "indexed": false,
          "internalType": "address",
          "name": "_address",
          "type": "address"
        }
      ],
      "name": "NonContractAddress",
      "type": "event"
    },
    {
      "anonymous": false,
      "inputs": [
        {
          "indexed": true,
          "internalType": "address",
          "name": "previousOwner",
          "type": "address"
        },
        {
          "indexed": true,
          "internalType": "address",
          "name": "newOwner",
          "type": "address"
        }
      ],
      "name": "OwnershipTransferred",
      "type": "event"
    },
    {
      "anonymous": false,
      "inputs": [
        {
          "indexed": false,
          "internalType": "address",
          "name": "account",
          "type": "address"
        }
      ],
      "name": "Paused",
      "type": "event"
    },
    {
      "anonymous": false,
      "inputs": [
        {
          "indexed": true,
          "internalType": "uint16",
          "name": "_srcChainId",
          "type": "uint16"
        },
        {
          "indexed": true,
          "internalType": "address",
          "name": "_to",
          "type": "address"
        },
        {
          "indexed": false,
          "internalType": "uint256",
          "name": "_amount",
          "type": "uint256"
        }
      ],
      "name": "ReceiveFromChain",
      "type": "event"
    },
    {
      "anonymous": false,
      "inputs": [
        {
          "indexed": false,
          "internalType": "uint16",
          "name": "_srcChainId",
          "type": "uint16"
        },
        {
          "indexed": false,
          "internalType": "bytes",
          "name": "_srcAddress",
          "type": "bytes"
        },
        {
          "indexed": false,
          "internalType": "uint64",
          "name": "_nonce",
          "type": "uint64"
        },
        {
          "indexed": false,
          "internalType": "bytes32",
          "name": "_payloadHash",
          "type": "bytes32"
        }
      ],
      "name": "RetryMessageSuccess",
      "type": "event"
    },
    {
      "anonymous": false,
      "inputs": [
        {
          "indexed": true,
          "internalType": "bytes32",
          "name": "role",
          "type": "bytes32"
        },
        {
          "indexed": true,
          "internalType": "bytes32",
          "name": "previousAdminRole",
          "type": "bytes32"
        },
        {
          "indexed": true,
          "internalType": "bytes32",
          "name": "newAdminRole",
          "type": "bytes32"
        }
      ],
      "name": "RoleAdminChanged",
      "type": "event"
    },
    {
      "anonymous": false,
      "inputs": [
        {
          "indexed": true,
          "internalType": "bytes32",
          "name": "role",
          "type": "bytes32"
        },
        {
          "indexed": true,
          "internalType": "address",
          "name": "account",
          "type": "address"
        },
        {
          "indexed": true,
          "internalType": "address",
          "name": "sender",
          "type": "address"
        }
      ],
      "name": "RoleGranted",
      "type": "event"
    },
    {
      "anonymous": false,
      "inputs": [
        {
          "indexed": true,
          "internalType": "bytes32",
          "name": "role",
          "type": "bytes32"
        },
        {
          "indexed": true,
          "internalType": "address",
          "name": "account",
          "type": "address"
        },
        {
          "indexed": true,
          "internalType": "address",
          "name": "sender",
          "type": "address"
        }
      ],
      "name": "RoleRevoked",
      "type": "event"
    },
    {
      "anonymous": false,
      "inputs": [
        {
          "indexed": true,
          "internalType": "uint16",
          "name": "_dstChainId",
          "type": "uint16"
        },
        {
          "indexed": true,
          "internalType": "address",
          "name": "_from",
          "type": "address"
        },
        {
          "indexed": true,
          "internalType": "bytes32",
          "name": "_toAddress",
          "type": "bytes32"
        },
        {
          "indexed": false,
          "internalType": "uint256",
          "name": "_amount",
          "type": "uint256"
        }
      ],
      "name": "SendToChain",
      "type": "event"
    },
    {
      "anonymous": false,
      "inputs": [
        {
          "indexed": false,
          "internalType": "uint16",
          "name": "_dstChainId",
          "type": "uint16"
        },
        {
          "indexed": false,
          "internalType": "uint16",
          "name": "_type",
          "type": "uint16"
        },
        {
          "indexed": false,
          "internalType": "uint256",
          "name": "_minDstGas",
          "type": "uint256"
        }
      ],
      "name": "SetMinDstGas",
      "type": "event"
    },
    {
      "anonymous": false,
      "inputs": [
        {
          "indexed": false,
          "internalType": "address",
          "name": "precrime",
          "type": "address"
        }
      ],
      "name": "SetPrecrime",
      "type": "event"
    },
    {
      "anonymous": false,
      "inputs": [
        {
          "indexed": false,
          "internalType": "uint16",
          "name": "_remoteChainId",
          "type": "uint16"
        },
        {
          "indexed": false,
          "internalType": "bytes",
          "name": "_path",
          "type": "bytes"
        }
      ],
      "name": "SetTrustedRemote",
      "type": "event"
    },
    {
      "anonymous": false,
      "inputs": [
        {
          "indexed": false,
          "internalType": "uint16",
          "name": "_remoteChainId",
          "type": "uint16"
        },
        {
          "indexed": false,
          "internalType": "bytes",
          "name": "_remoteAddress",
          "type": "bytes"
        }
      ],
      "name": "SetTrustedRemoteAddress",
      "type": "event"
    },
    {
      "anonymous": false,
      "inputs": [
        {
          "indexed": true,
          "internalType": "address",
          "name": "user",
          "type": "address"
        },
        {
          "indexed": false,
          "internalType": "uint256",
          "name": "amount",
          "type": "uint256"
        },
        {
          "indexed": false,
          "internalType": "uint16",
          "name": "targetChain",
          "type": "uint16"
        }
      ],
      "name": "TokensBurned",
      "type": "event"
    },
    {
      "anonymous": false,
      "inputs": [
        {
          "indexed": true,
          "internalType": "address",
          "name": "user",
          "type": "address"
        },
        {
          "indexed": false,
          "internalType": "uint256",
          "name": "amount",
          "type": "uint256"
        },
        {
          "indexed": false,
          "internalType": "uint16",
          "name": "sourceChain",
          "type": "uint16"
        }
      ],
      "name": "TokensMinted",
      "type": "event"
    },
    {
      "anonymous": false,
      "inputs": [
        {
          "indexed": true,
          "internalType": "address",
          "name": "from",
          "type": "address"
        },
        {
          "indexed": true,
          "internalType": "address",
          "name": "to",
          "type": "address"
        },
        {
          "indexed": false,
          "internalType": "uint256",
          "name": "value",
          "type": "uint256"
        }
      ],
      "name": "Transfer",
      "type": "event"
    },
    {
      "anonymous": false,
      "inputs": [
        {
          "indexed": false,
          "internalType": "address",
          "name": "account",
          "type": "address"
        }
      ],
      "name": "Unpaused",
      "type": "event"
    },
    {
      "inputs": [],
      "name": "ADMIN_ROLE",
      "outputs": [
        {
          "internalType": "bytes32",
          "name": "",
          "type": "bytes32"
        }
      ],
      "stateMutability": "view",
      "type": "function"
    },
    {
      "inputs": [],
      "name": "DEFAULT_ADMIN_ROLE",
      "outputs": [
        {
          "internalType": "bytes32",
          "name": "",
          "type": "bytes32"
        }
      ],
      "stateMutability": "view",
      "type": "function"
    },
    {
      "inputs": [],
      "name": "DEFAULT_PAYLOAD_SIZE_LIMIT",
      "outputs": [
        {
          "internalType": "uint256",
          "name": "",
          "type": "uint256"
        }
      ],
      "stateMutability": "view",
      "type": "function"
    },
    {
      "inputs": [],
      "name": "INITIAL_SUPPLY",
      "outputs": [
        {
          "internalType": "uint256",
          "name": "",
          "type": "uint256"
        }
      ],
      "stateMutability": "view",
      "type": "function"
    },
    {
      "inputs": [],
      "name": "MAX_DAILY_BURN",
      "outputs": [
        {
          "internalType": "uint256",
          "name": "",
          "type": "uint256"
        }
      ],
      "stateMutability": "view",
      "type": "function"
    },
    {
      "inputs": [],
      "name": "NO_EXTRA_GAS",
      "outputs": [
        {
          "internalType": "uint256",
          "name": "",
          "type": "uint256"
        }
      ],
      "stateMutability": "view",
      "type": "function"
    },
    {
      "inputs": [],
      "name": "ORACLE_ROLE",
      "outputs": [
        {
          "internalType": "bytes32",
          "name": "",
          "type": "bytes32"
        }
      ],
      "stateMutability": "view",
      "type": "function"
    },
    {
      "inputs": [],
      "name": "PAUSER_ROLE",
      "outputs": [
        {
          "internalType": "bytes32",
          "name": "",
          "type": "bytes32"
        }
      ],
      "stateMutability": "view",
      "type": "function"
    },
    {
      "inputs": [],
      "name": "PT_SEND",
      "outputs": [
        {
          "internalType": "uint8",
          "name": "",
          "type": "uint8"
        }
      ],
      "stateMutability": "view",
      "type": "function"
    },
    {
      "inputs": [],
      "name": "PT_SEND_AND_CALL",
      "outputs": [
        {
          "internalType": "uint8",
          "name": "",
          "type": "uint8"
        }
      ],
      "stateMutability": "view",
      "type": "function"
    },
    {
      "inputs": [],
      "name": "ROUTER_ROLE",
      "outputs": [
        {
          "internalType": "bytes32",
          "name": "",
          "type": "bytes32"
        }
      ],
      "stateMutability": "view",
      "type": "function"
    },
    {
      "inputs": [
        {
          "internalType": "address",
          "name": "owner",
          "type": "address"
        },
        {
          "internalType": "address",
          "name": "spender",
          "type": "address"
        }
      ],
      "name": "allowance",
      "outputs": [
        {
          "internalType": "uint256",
          "name": "",
          "type": "uint256"
        }
      ],
      "stateMutability": "view",
      "type": "function"
    },
    {
      "inputs": [
        {
          "internalType": "address",
          "name": "spender",
          "type": "address"
        },
        {
          "internalType": "uint256",
          "name": "amount",
          "type": "uint256"
        }
      ],
      "name": "approve",
      "outputs": [
        {
          "internalType": "bool",
          "name": "",
          "type": "bool"
        }
      ],
      "stateMutability": "nonpayable",
      "type": "function"
    },
    {
      "inputs": [
        {
          "internalType": "address",
          "name": "account",
          "type": "address"
        }
      ],
      "name": "balanceOf",
      "outputs": [
        {
          "internalType": "uint256",
          "name": "",
          "type": "uint256"
        }
      ],
      "stateMutability": "view",
      "type": "function"
    },
    {
      "inputs": [
        {
          "internalType": "uint256",
          "name": "_amount",
          "type": "uint256"
        }
      ],
      "name": "burn",
      "outputs": [],
      "stateMutability": "nonpayable",
      "type": "function"
    },
    {
      "inputs": [
        {
          "internalType": "address",
          "name": "from",
          "type": "address"
        },
        {
          "internalType": "uint256",
          "name": "amount",
          "type": "uint256"
        }
      ],
      "name": "burnFrom",
      "outputs": [],
      "stateMutability": "nonpayable",
      "type": "function"
    },
    {
      "inputs": [
        {
          "internalType": "uint16",
          "name": "_srcChainId",
          "type": "uint16"
        },
        {
          "internalType": "bytes",
          "name": "_srcAddress",
          "type": "bytes"
        },
        {
          "internalType": "uint64",
          "name": "_nonce",
          "type": "uint64"
        },
        {
          "internalType": "bytes32",
          "name": "_from",
          "type": "bytes32"
        },
        {
          "internalType": "address",
          "name": "_to",
          "type": "address"
        },
        {
          "internalType": "uint256",
          "name": "_amount",
          "type": "uint256"
        },
        {
          "internalType": "bytes",
          "name": "_payload",
          "type": "bytes"
        },
        {
          "internalType": "uint256",
          "name": "_gasForCall",
          "type": "uint256"
        }
      ],
      "name": "callOnOFTReceived",
      "outputs": [],
      "stateMutability": "nonpayable",
      "type": "function"
    },
    {
      "inputs": [],
      "name": "circulatingSupply",
      "outputs": [
        {
          "internalType": "uint256",
          "name": "",
          "type": "uint256"
        }
      ],
      "stateMutability": "view",
      "type": "function"
    },
    {
      "inputs": [
        {
          "internalType": "uint16",
          "name": "",
          "type": "uint16"
        },
        {
          "internalType": "bytes",
          "name": "",
          "type": "bytes"
        },
        {
          "internalType": "uint64",
          "name": "",
          "type": "uint64"
        }
      ],
      "name": "creditedPackets",
      "outputs": [
        {
          "internalType": "bool",
          "name": "",
          "type": "bool"
        }
      ],
      "stateMutability": "view",
      "type": "function"
    },
    {
      "inputs": [
        {
          "internalType": "address",
          "name": "",
          "type": "address"
        }
      ],
      "name": "dailyBurnAmount",
      "outputs": [
        {
          "internalType": "uint256",
          "name": "",
          "type": "uint256"
        }
      ],
      "stateMutability": "view",
      "type": "function"
    },
    {
      "inputs": [],
      "name": "decimals",
      "outputs": [
        {
          "internalType": "uint8",
          "name": "",
          "type": "uint8"
        }
      ],
      "stateMutability": "view",
      "type": "function"
    },
    {
      "inputs": [
        {
          "internalType": "address",
          "name": "spender",
          "type": "address"
        },
        {
          "internalType": "uint256",
          "name": "subtractedValue",
          "type": "uint256"
        }
      ],
      "name": "decreaseAllowance",
      "outputs": [
        {
          "internalType": "bool",
          "name": "",
          "type": "bool"
        }
      ],
      "stateMutability": "nonpayable",
      "type": "function"
    },
    {
      "inputs": [],
      "name": "emergencyWithdraw",
      "outputs": [],
      "stateMutability": "nonpayable",
      "type": "function"
    },
    {
      "inputs": [
        {
          "internalType": "uint16",
          "name": "_dstChainId",
          "type": "uint16"
        },
        {
          "internalType": "bytes32",
          "name": "_toAddress",
          "type": "bytes32"
        },
        {
          "internalType": "uint256",
          "name": "_amount",
          "type": "uint256"
        },
        {
          "internalType": "bytes",
          "name": "_payload",
          "type": "bytes"
        },
        {
          "internalType": "uint64",
          "name": "_dstGasForCall",
          "type": "uint64"
        },
        {
          "internalType": "bool",
          "name": "_useZro",
          "type": "bool"
        },
        {
          "internalType": "bytes",
          "name": "_adapterParams",
          "type": "bytes"
        }
      ],
      "name": "estimateSendAndCallFee",
      "outputs": [
        {
          "internalType": "uint256",
          "name": "nativeFee",
          "type": "uint256"
        },
        {
          "internalType": "uint256",
          "name": "zroFee",
          "type": "uint256"
        }
      ],
      "stateMutability": "view",
      "type": "function"
    },
    {
      "inputs": [
        {
          "internalType": "uint16",
          "name": "_dstChainId",
          "type": "uint16"
        },
        {
          "internalType": "bytes32",
          "name": "_toAddress",
          "type": "bytes32"
        },
        {
          "internalType": "uint256",
          "name": "_amount",
          "type": "uint256"
        },
        {
          "internalType": "bool",
          "name": "_useZro",
          "type": "bool"
        },
        {
          "internalType": "bytes",
          "name": "_adapterParams",
          "type": "bytes"
        }
      ],
      "name": "estimateSendFee",
      "outputs": [
        {
          "internalType": "uint256",
          "name": "nativeFee",
          "type": "uint256"
        },
        {
          "internalType": "uint256",
          "name": "zroFee",
          "type": "uint256"
        }
      ],
      "stateMutability": "view",
      "type": "function"
    },
    {
      "inputs": [
        {
          "internalType": "uint16",
          "name": "",
          "type": "uint16"
        },
        {
          "internalType": "bytes",
          "name": "",
          "type": "bytes"
        },
        {
          "internalType": "uint64",
          "name": "",
          "type": "uint64"
        }
      ],
      "name": "failedMessages",
      "outputs": [
        {
          "internalType": "bytes32",
          "name": "",
          "type": "bytes32"
        }
      ],
      "stateMutability": "view",
      "type": "function"
    },
    {
      "inputs": [
        {
          "internalType": "uint16",
          "name": "_srcChainId",
          "type": "uint16"
        },
        {
          "internalType": "bytes",
          "name": "_srcAddress",
          "type": "bytes"
        }
      ],
      "name": "forceResumeReceive",
      "outputs": [],
      "stateMutability": "nonpayable",
      "type": "function"
    },
    {
      "inputs": [
        {
          "internalType": "uint16",
          "name": "_version",
          "type": "uint16"
        },
        {
          "internalType": "uint16",
          "name": "_chainId",
          "type": "uint16"
        },
        {
          "internalType": "address",
          "name": "",
          "type": "address"
        },
        {
          "internalType": "uint256",
          "name": "_configType",
          "type": "uint256"
        }
      ],
      "name": "getConfig",
      "outputs": [
        {
          "internalType": "bytes",
          "name": "",
          "type": "bytes"
        }
      ],
      "stateMutability": "view",
      "type": "function"
    },
    {
      "inputs": [
        {
          "internalType": "address",
          "name": "user",
          "type": "address"
        }
      ],
      "name": "getRemainingDailyBurn",
      "outputs": [
        {
          "internalType": "uint256",
          "name": "",
          "type": "uint256"
        }
      ],
      "stateMutability": "view",
      "type": "function"
    },
    {
      "inputs": [
        {
          "internalType": "bytes32",
          "name": "role",
          "type": "bytes32"
        }
      ],
      "name": "getRoleAdmin",
      "outputs": [
        {
          "internalType": "bytes32",
          "name": "",
          "type": "bytes32"
        }
      ],
      "stateMutability": "view",
      "type": "function"
    },
    {
      "inputs": [
        {
          "internalType": "uint16",
          "name": "_remoteChainId",
          "type": "uint16"
        }
      ],
      "name": "getTrustedRemoteAddress",
      "outputs": [
        {
          "internalType": "bytes",
          "name": "",
          "type": "bytes"
        }
      ],
      "stateMutability": "view",
      "type": "function"
    },
    {
      "inputs": [
        {
          "internalType": "bytes32",
          "name": "role",
          "type": "bytes32"
        },
        {
          "internalType": "address",
          "name": "account",
          "type": "address"
        }
      ],
      "name": "grantRole",
      "outputs": [],
      "stateMutability": "nonpayable",
      "type": "function"
    },
    {
      "inputs": [
        {
          "internalType": "bytes32",
          "name": "role",
          "type": "bytes32"
        },
        {
          "internalType": "address",
          "name": "account",
          "type": "address"
        }
      ],
      "name": "hasRole",
      "outputs": [
        {
          "internalType": "bool",
          "name": "",
          "type": "bool"
        }
      ],
      "stateMutability": "view",
      "type": "function"
    },
    {
      "inputs": [
        {
          "internalType": "address",
          "name": "spender",
          "type": "address"
        },
        {
          "internalType": "uint256",
          "name": "addedValue",
          "type": "uint256"
        }
      ],
      "name": "increaseAllowance",
      "outputs": [
        {
          "internalType": "bool",
          "name": "",
          "type": "bool"
        }
      ],
      "stateMutability": "nonpayable",
      "type": "function"
    },
    {
      "inputs": [
        {
          "internalType": "uint16",
          "name": "_srcChainId",
          "type": "uint16"
        },
        {
          "internalType": "bytes",
          "name": "_srcAddress",
          "type": "bytes"
        }
      ],
      "name": "isTrustedRemote",
      "outputs": [
        {
          "internalType": "bool",
          "name": "",
          "type": "bool"
        }
      ],
      "stateMutability": "view",
      "type": "function"
    },
    {
      "inputs": [
        {
          "internalType": "address",
          "name": "",
          "type": "address"
        }
      ],
      "name": "lastBurnReset",
      "outputs": [
        {
          "internalType": "uint256",
          "name": "",
          "type": "uint256"
        }
      ],
      "stateMutability": "view",
      "type": "function"
    },
    {
      "inputs": [],
      "name": "lzEndpoint",
      "outputs": [
        {
          "internalType": "contract ILayerZeroEndpoint",
          "name": "",
          "type": "address"
        }
      ],
      "stateMutability": "view",
      "type": "function"
    },
    {
      "inputs": [
        {
          "internalType": "uint16",
          "name": "_srcChainId",
          "type": "uint16"
        },
        {
          "internalType": "bytes",
          "name": "_srcAddress",
          "type": "bytes"
        },
        {
          "internalType": "uint64",
          "name": "_nonce",
          "type": "uint64"
        },
        {
          "internalType": "bytes",
          "name": "_payload",
          "type": "bytes"
        }
      ],
      "name": "lzReceive",
      "outputs": [],
      "stateMutability": "nonpayable",
      "type": "function"
    },
    {
      "inputs": [
        {
          "internalType": "uint16",
          "name": "",
          "type": "uint16"
        },
        {
          "internalType": "uint16",
          "name": "",
          "type": "uint16"
        }
      ],
      "name": "minDstGasLookup",
      "outputs": [
        {
          "internalType": "uint256",
          "name": "",
          "type": "uint256"
        }
      ],
      "stateMutability": "view",
      "type": "function"
    },
    {
      "inputs": [
        {
          "internalType": "address",
          "name": "to",
          "type": "address"
        },
        {
          "internalType": "uint256",
          "name": "amount",
          "type": "uint256"
        }
      ],
      "name": "mint",
      "outputs": [],
      "stateMutability": "nonpayable",
      "type": "function"
    },
    {
      "inputs": [],
      "name": "name",
      "outputs": [
        {
          "internalType": "string",
          "name": "",
          "type": "string"
        }
      ],
      "stateMutability": "view",
      "type": "function"
    },
    {
      "inputs": [
        {
          "internalType": "uint16",
          "name": "_srcChainId",
          "type": "uint16"
        },
        {
          "internalType": "bytes",
          "name": "_srcAddress",
          "type": "bytes"
        },
        {
          "internalType": "uint64",
          "name": "_nonce",
          "type": "uint64"
        },
        {
          "internalType": "bytes",
          "name": "_payload",
          "type": "bytes"
        }
      ],
      "name": "nonblockingLzReceive",
      "outputs": [],
      "stateMutability": "nonpayable",
      "type": "function"
    },
    {
      "inputs": [],
      "name": "owner",
      "outputs": [
        {
          "internalType": "address",
          "name": "",
          "type": "address"
        }
      ],
      "stateMutability": "view",
      "type": "function"
    },
    {
      "inputs": [],
      "name": "pause",
      "outputs": [],
      "stateMutability": "nonpayable",
      "type": "function"
    },
    {
      "inputs": [],
      "name": "paused",
      "outputs": [
        {
          "internalType": "bool",
          "name": "",
          "type": "bool"
        }
      ],
      "stateMutability": "view",
      "type": "function"
    },
    {
      "inputs": [
        {
          "internalType": "uint16",
          "name": "",
          "type": "uint16"
        }
      ],
      "name": "payloadSizeLimitLookup",
      "outputs": [
        {
          "internalType": "uint256",
          "name": "",
          "type": "uint256"
        }
      ],
      "stateMutability": "view",
      "type": "function"
    },
    {
      "inputs": [],
      "name": "precrime",
      "outputs": [
        {
          "internalType": "address",
          "name": "",
          "type": "address"
        }
      ],
      "stateMutability": "view",
      "type": "function"
    },
    {
      "inputs": [],
      "name": "renounceOwnership",
      "outputs": [],
      "stateMutability": "nonpayable",
      "type": "function"
    },
    {
      "inputs": [
        {
          "internalType": "bytes32",
          "name": "role",
          "type": "bytes32"
        },
        {
          "internalType": "address",
          "name": "account",
          "type": "address"
        }
      ],
      "name": "renounceRole",
      "outputs": [],
      "stateMutability": "nonpayable",
      "type": "function"
    },
    {
      "inputs": [
        {
          "internalType": "uint16",
          "name": "_srcChainId",
          "type": "uint16"
        },
        {
          "internalType": "bytes",
          "name": "_srcAddress",
          "type": "bytes"
        },
        {
          "internalType": "uint64",
          "name": "_nonce",
          "type": "uint64"
        },
        {
          "internalType": "bytes",
          "name": "_payload",
          "type": "bytes"
        }
      ],
      "name": "retryMessage",
      "outputs": [],
      "stateMutability": "payable",
      "type": "function"
    },
    {
      "inputs": [
        {
          "internalType": "bytes32",
          "name": "role",
          "type": "bytes32"
        },
        {
          "internalType": "address",
          "name": "account",
          "type": "address"
        }
      ],
      "name": "revokeRole",
      "outputs": [],
      "stateMutability": "nonpayable",
      "type": "function"
    },
    {
      "inputs": [
        {
          "internalType": "address",
          "name": "_from",
          "type": "address"
        },
        {
          "internalType": "uint16",
          "name": "_dstChainId",
          "type": "uint16"
        },
        {
          "internalType": "bytes32",
          "name": "_toAddress",
          "type": "bytes32"
        },
        {
          "internalType": "uint256",
          "name": "_amount",
          "type": "uint256"
        },
        {
          "internalType": "bytes",
          "name": "_payload",
          "type": "bytes"
        },
        {
          "internalType": "uint64",
          "name": "_dstGasForCall",
          "type": "uint64"
        },
        {
          "components": [
            {
              "internalType": "address payable",
              "name": "refundAddress",
              "type": "address"
            },
            {
              "internalType": "address",
              "name": "zroPaymentAddress",
              "type": "address"
            },
            {
              "internalType": "bytes",
              "name": "adapterParams",
              "type": "bytes"
            }
          ],
          "internalType": "struct ICommonOFT.LzCallParams",
          "name": "_callParams",
          "type": "tuple"
        }
      ],
      "name": "sendAndCall",
      "outputs": [],
      "stateMutability": "payable",
      "type": "function"
    },
    {
      "inputs": [
        {
          "internalType": "address",
          "name": "_from",
          "type": "address"
        },
        {
          "internalType": "uint16",
          "name": "_dstChainId",
          "type": "uint16"
        },
        {
          "internalType": "bytes32",
          "name": "_toAddress",
          "type": "bytes32"
        },
        {
          "internalType": "uint256",
          "name": "_amount",
          "type": "uint256"
        },
        {
          "components": [
            {
              "internalType": "address payable",
              "name": "refundAddress",
              "type": "address"
            },
            {
              "internalType": "address",
              "name": "zroPaymentAddress",
              "type": "address"
            },
            {
              "internalType": "bytes",
              "name": "adapterParams",
              "type": "bytes"
            }
          ],
          "internalType": "struct ICommonOFT.LzCallParams",
          "name": "_callParams",
          "type": "tuple"
        }
      ],
      "name": "sendFrom",
      "outputs": [],
      "stateMutability": "payable",
      "type": "function"
    },
    {
      "inputs": [
        {
          "internalType": "uint16",
          "name": "_version",
          "type": "uint16"
        },
        {
          "internalType": "uint16",
          "name": "_chainId",
          "type": "uint16"
        },
        {
          "internalType": "uint256",
          "name": "_configType",
          "type": "uint256"
        },
        {
          "internalType": "bytes",
          "name": "_config",
          "type": "bytes"
        }
      ],
      "name": "setConfig",
      "outputs": [],
      "stateMutability": "nonpayable",
      "type": "function"
    },
    {
      "inputs": [
        {
          "internalType": "uint16",
          "name": "_dstChainId",
          "type": "uint16"
        },
        {
          "internalType": "uint16",
          "name": "_packetType",
          "type": "uint16"
        },
        {
          "internalType": "uint256",
          "name": "_minGas",
          "type": "uint256"
        }
      ],
      "name": "setMinDstGas",
      "outputs": [],
      "stateMutability": "nonpayable",
      "type": "function"
    },
    {
      "inputs": [
        {
          "internalType": "uint16",
          "name": "_dstChainId",
          "type": "uint16"
        },
        {
          "internalType": "uint256",
          "name": "_size",
          "type": "uint256"
        }
      ],
      "name": "setPayloadSizeLimit",
      "outputs": [],
      "stateMutability": "nonpayable",
      "type": "function"
    },
    {
      "inputs": [
        {
          "internalType": "address",
          "name": "_precrime",
          "type": "address"
        }
      ],
      "name": "setPrecrime",
      "outputs": [],
      "stateMutability": "nonpayable",
      "type": "function"
    },
    {
      "inputs": [
        {
          "internalType": "uint16",
          "name": "_version",
          "type": "uint16"
        }
      ],
      "name": "setReceiveVersion",
      "outputs": [],
      "stateMutability": "nonpayable",
      "type": "function"
    },
    {
      "inputs": [
        {
          "internalType": "uint16",
          "name": "_version",
          "type": "uint16"
        }
      ],
      "name": "setSendVersion",
      "outputs": [],
      "stateMutability": "nonpayable",
      "type": "function"
    },
    {
      "inputs": [
        {
          "internalType": "uint16",
          "name": "_remoteChainId",
          "type": "uint16"
        },
        {
          "internalType": "bytes",
          "name": "_path",
          "type": "bytes"
        }
      ],
      "name": "setTrustedRemote",
      "outputs": [],
      "stateMutability": "nonpayable",
      "type": "function"
    },
    {
      "inputs": [
        {
          "internalType": "uint16",
          "name": "_remoteChainId",
          "type": "uint16"
        },
        {
          "internalType": "bytes",
          "name": "_remoteAddress",
          "type": "bytes"
        }
      ],
      "name": "setTrustedRemoteAddress",
      "outputs": [],
      "stateMutability": "nonpayable",
      "type": "function"
    },
    {
      "inputs": [],
      "name": "sharedDecimals",
      "outputs": [
        {
          "internalType": "uint8",
          "name": "",
          "type": "uint8"
        }
      ],
      "stateMutability": "view",
      "type": "function"
    },
    {
      "inputs": [
        {
          "internalType": "bytes4",
          "name": "interfaceId",
          "type": "bytes4"
        }
      ],
      "name": "supportsInterface",
      "outputs": [
        {
          "internalType": "bool",
          "name": "",
          "type": "bool"
        }
      ],
      "stateMutability": "view",
      "type": "function"
    },
    {
      "inputs": [],
      "name": "symbol",
      "outputs": [
        {
          "internalType": "string",
          "name": "",
          "type": "string"
        }
      ],
      "stateMutability": "view",
      "type": "function"
    },
    {
      "inputs": [],
      "name": "token",
      "outputs": [
        {
          "internalType": "address",
          "name": "",
          "type": "address"
        }
      ],
      "stateMutability": "view",
      "type": "function"
    },
    {
      "inputs": [],
      "name": "totalBurned",
      "outputs": [
        {
          "internalType": "uint256",
          "name": "",
          "type": "uint256"
        }
      ],
      "stateMutability": "view",
      "type": "function"
    },
    {
      "inputs": [],
      "name": "totalMinted",
      "outputs": [
        {
          "internalType": "uint256",
          "name": "",
          "type": "uint256"
        }
      ],
      "stateMutability": "view",
      "type": "function"
    },
    {
      "inputs": [],
      "name": "totalSupply",
      "outputs": [
        {
          "internalType": "uint256",
          "name": "",
          "type": "uint256"
        }
      ],
      "stateMutability": "view",
      "type": "function"
    },
    {
      "inputs": [
        {
          "internalType": "address",
          "name": "to",
          "type": "address"
        },
        {
          "internalType": "uint256",
          "name": "amount",
          "type": "uint256"
        }
      ],
      "name": "transfer",
      "outputs": [
        {
          "internalType": "bool",
          "name": "",
          "type": "bool"
        }
      ],
      "stateMutability": "nonpayable",
      "type": "function"
    },
    {
      "inputs": [
        {
          "internalType": "address",
          "name": "from",
          "type": "address"
        },
        {
          "internalType": "address",
          "name": "to",
          "type": "address"
        },
        {
          "internalType": "uint256",
          "name": "amount",
          "type": "uint256"
        }
      ],
      "name": "transferFrom",
      "outputs": [
        {
          "internalType": "bool",
          "name": "",
          "type": "bool"
        }
      ],
      "stateMutability": "nonpayable",
      "type": "function"
    },
    {
      "inputs": [
        {
          "internalType": "address",
          "name": "newOwner",
          "type": "address"
        }
      ],
      "name": "transferOwnership",
      "outputs": [],
      "stateMutability": "nonpayable",
      "type": "function"
    },
    {
      "inputs": [
        {
          "internalType": "uint16",
          "name": "",
          "type": "uint16"
        }
      ],
      "name": "trustedRemoteLookup",
      "outputs": [
        {
          "internalType": "bytes",
          "name": "",
          "type": "bytes"
        }
      ],
      "stateMutability": "view",
      "type": "function"
    },
    {
      "inputs": [],
      "name": "unpause",
      "outputs": [],
      "stateMutability": "nonpayable",
      "type": "function"
    },
    {
      "stateMutability": "payable",
      "type": "receive"
    }
  ],
  "bytecode": "0x60e06040523480156200001157600080fd5b5060405162005cb138038062005cb18339810160408190526200003491620004c9565b818160088583838383818180806200004c33620001b8565b6001600160a01b0316608052505060ff1660a05250600a9050620000718382620005e1565b50600b620000808282620005e1565b5050506000620000956200020860201b60201c565b90508060ff168360ff161115620001035760405162461bcd60e51b815260206004820152602760248201527f4f46543a20736861726564446563696d616c73206d757374206265203c3d20646044820152666563696d616c7360c81b60648201526084015b60405180910390fd5b6200010f8382620006c3565b6200011c90600a620007dc565b60c0525050600d805460ff1916905550506001600e5550620001406000336200020d565b6200016c7fa49807205ce4d355092ef5a8a18f56e8913cf4a201fbe287825b095693c21775336200020d565b620001987f65d7a28e3265b37a6474929f336521b332c1681b933f6cb9f3376673440d862a336200020d565b620001af336a52b7d2dcc80cd2e400000062000298565b5050506200080a565b600080546001600160a01b038381166001600160a01b0319831681178455604051919092169283917f8be0079c531659141344cd1fd0a4f28419497f9722a3daafe3b4186f6b6457e09190a35050565b601290565b6200021982826200036b565b62000294576000828152600c602090815260408083206001600160a01b03851684529091529020805460ff19166001179055620002533390565b6001600160a01b0316816001600160a01b0316837f2f8788117e7eff1d82e926ec794901d17c78024a50270940304540a733656f0d60405160405180910390a45b5050565b6001600160a01b038216620002f05760405162461bcd60e51b815260206004820152601f60248201527f45524332303a206d696e7420746f20746865207a65726f2061646472657373006044820152606401620000fa565b620002fe6000838362000398565b8060096000828254620003129190620007f4565b90915550506001600160a01b0382166000818152600760209081526040808320805486019055518481527fddf252ad1be2c89b69c2b068fc378daa952ba7f163c4a11628f55a4df523b3ef910160405180910390a35050565b6000828152600c602090815260408083206001600160a01b038516845290915290205460ff165b92915050565b620003a2620003ba565b620003b58383836001600160e01b038416565b505050565b600d5460ff1615620004025760405162461bcd60e51b815260206004820152601060248201526f14185d5cd8589b194e881c185d5cd95960821b6044820152606401620000fa565b565b634e487b7160e01b600052604160045260246000fd5b600082601f8301126200042c57600080fd5b81516001600160401b038082111562000449576200044962000404565b604051601f8301601f19908116603f0116810190828211818310171562000474576200047462000404565b816040528381526020925086838588010111156200049157600080fd5b600091505b83821015620004b5578582018301518183018401529082019062000496565b600093810190920192909252949350505050565b600080600060608486031215620004df57600080fd5b83516001600160a01b0381168114620004f757600080fd5b60208501519093506001600160401b03808211156200051557600080fd5b62000523878388016200041a565b935060408601519150808211156200053a57600080fd5b5062000549868287016200041a565b9150509250925092565b600181811c908216806200056857607f821691505b6020821081036200058957634e487b7160e01b600052602260045260246000fd5b50919050565b601f821115620003b557600081815260208120601f850160051c81016020861015620005b85750805b601f850160051c820191505b81811015620005d957828155600101620005c4565b505050505050565b81516001600160401b03811115620005fd57620005fd62000404565b62000615816200060e845462000553565b846200058f565b602080601f8311600181146200064d5760008415620006345750858301515b600019600386901b1c1916600185901b178555620005d9565b600085815260208120601f198616915b828110156200067e578886015182559484019460019091019084016200065d565b50858210156200069d5787850151600019600388901b60f8161c191681555b5050505050600190811b01905550565b634e487b7160e01b600052601160045260246000fd5b60ff8281168282160390811115620003925762000392620006ad565b600181815b8085111562000720578160001904821115620007045762000704620006ad565b808516156200071257918102915b93841c9390800290620006e4565b509250929050565b600082620007395750600162000392565b81620007485750600062000392565b81600181146200076157600281146200076c576200078c565b600191505062000392565b60ff841115620007805762000780620006ad565b50506001821b62000392565b5060208310610133831016604e8410600b8410161715620007b1575081810a62000392565b620007bd8383620006df565b8060001904821115620007d457620007d4620006ad565b029392505050565b6000620007ed60ff84168362000728565b9392505050565b80820180821115620003925762000392620006ad565b60805160a05160c05161542a620008876000396000818161362401528181613ac20152614049015260006109ab015260008181610bd901528181610dfb015281816110ed015281816111ad015281816116a101528181611f3a015281816124eb01528181612ab10152818161337f0152613d53015261542a6000f3fe6080604052600436106104295760003560e01c806379cc679011610229578063a9059cbb1161012e578063dd62ed3e116100b6578063eb4f23961161007a578063eb4f239614610d58578063eb8d72b714610d85578063f2fde38b14610da5578063f5ecbdbc14610dc5578063fc0c546a14610de557600080fd5b8063dd62ed3e14610caf578063df2a5b3b14610ccf578063e63ab1e914610cef578063e6a20ae614610d23578063eaffd49a14610d3857600080fd5b8063cbed8b9c116100fd578063cbed8b9c14610c31578063d1deba1f14610c51578063d547741f14610c64578063d89135cd14610c84578063db2e21bc14610c9a57600080fd5b8063a9059cbb14610ba7578063b353aaa714610bc7578063baf3292d14610bfb578063c446183414610c1b57600080fd5b8063950c8a74116101b1578063a217fddf11610180578063a217fddf146107c1578063a2309ff814610b31578063a457c2d714610b47578063a4c51df514610b67578063a6c3d16514610b8757600080fd5b8063950c8a7414610a8a57806395d89b4114610aaa5780639bdb981214610abf5780639f38369a14610b1157600080fd5b80638cfd8f5c116101f85780638cfd8f5c146109cd5780638da5cb5b14610a055780638f97e81e14610a3757806391d1485414610a555780639358928b14610a7557600080fd5b806379cc6790146109375780637bd0ad1b146109575780638456cb5914610984578063857749b01461099957600080fd5b8063395093511161032f5780635b8c41e6116102b757806370a082311161028657806370a0823114610885578063715018a6146108bb5780637533d788146108d057806375b238fc146108f057806376203b481461092457600080fd5b80635b8c41e6146107eb5780635c975abb1461083a57806366ad5c8a14610852578063695ef6bf1461087257600080fd5b806340c10f19116102fe57806340c10f191461076157806342966c681461078157806342d65a8d146107a157806344770515146107c15780634c42899a146107d657600080fd5b806339509351146106df5780633d8b38f6146106ff5780633f1f4fa41461071f5780633f4ba83a1461074c57600080fd5b806323b872dd116103b25780632ff2e9dc116103815780632ff2e9dc1461061557806330d643b514610634578063313ce56714610668578063365260b41461068a57806336568abe146106bf57600080fd5b806323b872dd14610585578063248a9ca3146105a55780632c773dd9146105d55780632f2ff15d146105f557600080fd5b806307e2cea5116103f957806307e2cea5146104ce578063095ea7b3146105105780630df374831461053057806310ddb1371461055057806318160ddd1461057057600080fd5b80621d35671461043557806301ffc9a71461045757806306fdde031461048c57806307e0db17146104ae57600080fd5b3661043057005b600080fd5b34801561044157600080fd5b5061045561045036600461440a565b610df8565b005b34801561046357600080fd5b5061047761047236600461449d565b611029565b60405190151581526020015b60405180910390f35b34801561049857600080fd5b506104a161103a565b6040516104839190614517565b3480156104ba57600080fd5b506104556104c936600461452a565b6110cc565b3480156104da57600080fd5b506105027f68e79a7bf1e0bc45d0a330c573bc367f9cf464fd326078812f301165fbda4ef181565b604051908152602001610483565b34801561051c57600080fd5b5061047761052b36600461455a565b611155565b34801561053c57600080fd5b5061045561054b366004614586565b61116d565b34801561055c57600080fd5b5061045561056b36600461452a565b61118c565b34801561057c57600080fd5b50600954610502565b34801561059157600080fd5b506104776105a03660046145a2565b6111e4565b3480156105b157600080fd5b506105026105c03660046145e3565b6000908152600c602052604090206001015490565b3480156105e157600080fd5b506105026105f03660046145fc565b611208565b34801561060157600080fd5b50610455610610366004614619565b61125e565b34801561062157600080fd5b506105026a52b7d2dcc80cd2e400000081565b34801561064057600080fd5b506105027f7a05a596cb0ce7fdea8a1e1ec73be300bdb35097c944ce1897202f7a13122eb281565b34801561067457600080fd5b5060125b60405160ff9091168152602001610483565b34801561069657600080fd5b506106aa6106a5366004614659565b611288565b60408051928352602083019190915201610483565b3480156106cb57600080fd5b506104556106da366004614619565b6112dd565b3480156106eb57600080fd5b506104776106fa36600461455a565b61135b565b34801561070b57600080fd5b5061047761071a3660046146be565b61137d565b34801561072b57600080fd5b5061050261073a36600461452a565b60036020526000908152604090205481565b34801561075857600080fd5b50610455611449565b34801561076d57600080fd5b5061045561077c36600461455a565b61147e565b34801561078d57600080fd5b5061045561079c3660046145e3565b6115d6565b3480156107ad57600080fd5b506104556107bc3660046146be565b611682565b3480156107cd57600080fd5b50610502600081565b3480156107e257600080fd5b50610678600081565b3480156107f757600080fd5b5061050261080636600461477d565b6005602090815260009384526040808520845180860184018051928152908401958401959095209452929052825290205481565b34801561084657600080fd5b50600d5460ff16610477565b34801561085e57600080fd5b5061045561086d36600461440a565b611708565b610455610880366004614835565b6117e4565b34801561089157600080fd5b506105026108a03660046145fc565b6001600160a01b031660009081526007602052604090205490565b3480156108c757600080fd5b5061045561184f565b3480156108dc57600080fd5b506104a16108eb36600461452a565b611863565b3480156108fc57600080fd5b506105027fa49807205ce4d355092ef5a8a18f56e8913cf4a201fbe287825b095693c2177581565b6104556109323660046148a8565b6118fd565b34801561094357600080fd5b5061045561095236600461455a565b6119ac565b34801561096357600080fd5b506105026109723660046145fc565b60106020526000908152604090205481565b34801561099057600080fd5b50610455611b93565b3480156109a557600080fd5b506106787f000000000000000000000000000000000000000000000000000000000000000081565b3480156109d957600080fd5b506105026109e836600461495a565b600260209081526000928352604080842090915290825290205481565b348015610a1157600080fd5b506000546001600160a01b03165b6040516001600160a01b039091168152602001610483565b348015610a4357600080fd5b5061050269d3c21bcecceda100000081565b348015610a6157600080fd5b50610477610a70366004614619565b611bc5565b348015610a8157600080fd5b50610502611bf0565b348015610a9657600080fd5b50600454610a1f906001600160a01b031681565b348015610ab657600080fd5b506104a1611c00565b348015610acb57600080fd5b50610477610ada36600461477d565b6006602090815260009384526040808520845180860184018051928152908401958401959095209452929052825290205460ff1681565b348015610b1d57600080fd5b506104a1610b2c36600461452a565b611c0f565b348015610b3d57600080fd5b5061050260125481565b348015610b5357600080fd5b50610477610b6236600461455a565b611d1e565b348015610b7357600080fd5b506106aa610b8236600461498d565b611d99565b348015610b9357600080fd5b50610455610ba23660046146be565b611e28565b348015610bb357600080fd5b50610477610bc236600461455a565b611eb1565b348015610bd357600080fd5b50610a1f7f000000000000000000000000000000000000000000000000000000000000000081565b348015610c0757600080fd5b50610455610c163660046145fc565b611ebf565b348015610c2757600080fd5b5061050261271081565b348015610c3d57600080fd5b50610455610c4c366004614a46565b611f1b565b610455610c5f36600461440a565b611fa5565b348015610c7057600080fd5b50610455610c7f366004614619565b6121bb565b348015610c9057600080fd5b5061050260115481565b348015610ca657600080fd5b506104556121e0565b348015610cbb57600080fd5b50610502610cca366004614ab4565b612236565b348015610cdb57600080fd5b50610455610cea366004614ae2565b612261565b348015610cfb57600080fd5b506105027f65d7a28e3265b37a6474929f336521b332c1681b933f6cb9f3376673440d862a81565b348015610d2f57600080fd5b50610678600181565b348015610d4457600080fd5b50610455610d53366004614b1e565b6122cb565b348015610d6457600080fd5b50610502610d733660046145fc565b600f6020526000908152604090205481565b348015610d9157600080fd5b50610455610da03660046146be565b6123ea565b348015610db157600080fd5b50610455610dc03660046145fc565b612444565b348015610dd157600080fd5b506104a1610de0366004614be6565b6124ba565b348015610df157600080fd5b5030610a1f565b337f00000000000000000000000000000000000000000000000000000000000000006001600160a01b031614610e755760405162461bcd60e51b815260206004820152601e60248201527f4c7a4170703a20696e76616c696420656e64706f696e742063616c6c6572000060448201526064015b60405180910390fd5b61ffff861660009081526001602052604081208054610e9390614c33565b80601f0160208091040260200160405190810160405280929190818152602001828054610ebf90614c33565b8015610f0c5780601f10610ee157610100808354040283529160200191610f0c565b820191906000526020600020905b815481529060010190602001808311610eef57829003601f168201915b50505050509050805186869050148015610f27575060008151115b8015610f4f575080516020820120604051610f459088908890614c67565b6040518091039020145b610faa5760405162461bcd60e51b815260206004820152602660248201527f4c7a4170703a20696e76616c696420736f757263652073656e64696e6720636f6044820152651b9d1c9858dd60d21b6064820152608401610e6c565b6110208787878080601f01602080910402602001604051908101604052809392919081815260200183838082843760009201919091525050604080516020601f8a018190048102820181019092528881528a93509150889088908190840183828082843760009201919091525061256d92505050565b50505050505050565b6000611034826125e6565b92915050565b6060600a805461104990614c33565b80601f016020809104026020016040519081016040528092919081815260200182805461107590614c33565b80156110c25780601f10611097576101008083540402835291602001916110c2565b820191906000526020600020905b8154815290600101906020018083116110a557829003601f168201915b5050505050905090565b6110d461260b565b6040516307e0db1760e01b815261ffff821660048201527f00000000000000000000000000000000000000000000000000000000000000006001600160a01b0316906307e0db17906024015b600060405180830381600087803b15801561113a57600080fd5b505af115801561114e573d6000803e3d6000fd5b5050505050565b600033611163818585612665565b5060019392505050565b61117561260b565b61ffff909116600090815260036020526040902055565b61119461260b565b6040516310ddb13760e01b815261ffff821660048201527f00000000000000000000000000000000000000000000000000000000000000006001600160a01b0316906310ddb13790602401611120565b6000336111f2858285612789565b6111fd858585612803565b506001949350505050565b6001600160a01b0381166000908152600f602090815260408083205460109092528220546112399062015180614c8d565b4210611243575060005b6112578169d3c21bcecceda1000000614ca0565b9392505050565b6000828152600c6020526040902060010154611279816129b9565b61128383836129c3565b505050565b6000806112ce8888888888888080601f016020809104026020016040519081016040528093929190818152602001838380828437600092019190915250612a4992505050565b91509150965096945050505050565b6001600160a01b038116331461134d5760405162461bcd60e51b815260206004820152602f60248201527f416363657373436f6e74726f6c3a2063616e206f6e6c792072656e6f756e636560448201526e103937b632b9903337b91039b2b63360891b6064820152608401610e6c565b6113578282612b3d565b5050565b60003361116381858561136e8383612236565b6113789190614c8d565b612665565b61ffff83166000908152600160205260408120805482919061139e90614c33565b80601f01602080910402602001604051908101604052809291908181526020018280546113ca90614c33565b80156114175780601f106113ec57610100808354040283529160200191611417565b820191906000526020600020905b8154815290600101906020018083116113fa57829003601f168201915b50505050509050838360405161142e929190614c67565b60405180910390208180519060200120149150509392505050565b7f65d7a28e3265b37a6474929f336521b332c1681b933f6cb9f3376673440d862a611473816129b9565b61147b612ba4565b50565b7f7a05a596cb0ce7fdea8a1e1ec73be300bdb35097c944ce1897202f7a13122eb26114a8816129b9565b6114b0612bf6565b6001600160a01b0383166115065760405162461bcd60e51b815260206004820152601e60248201527f4254434d696e65723a206d696e7420746f207a65726f206164647265737300006044820152606401610e6c565b6000821161156b5760405162461bcd60e51b815260206004820152602c60248201527f4254434d696e65723a206d696e7420616d6f756e74206d75737420626520677260448201526b06561746572207468616e20360a41b6064820152608401610e6c565b6115758383612c3c565b81601260008282546115879190614c8d565b909155505060408051838152600060208201526001600160a01b038516917f1fa87ff6270a212f3aa153a85700026d5b89935a9363cc01bd4efb702a33383091015b60405180910390a2505050565b6115de612bf6565b6115e6612d09565b6115f03382612d62565b6115fa3382612e0d565b336000908152601060205260409020546116179062015180614c8d565b421061163d57336000908152600f60209081526040808320839055601090915290204290555b336000908152600f60205260408120805483929061165c908490614c8d565b9250508190555080601160008282546116759190614c8d565b90915550506001600e5550565b61168a61260b565b6040516342d65a8d60e01b81526001600160a01b037f000000000000000000000000000000000000000000000000000000000000000016906342d65a8d906116da90869086908690600401614cdc565b600060405180830381600087803b1580156116f457600080fd5b505af1158015611020573d6000803e3d6000fd5b3330146117665760405162461bcd60e51b815260206004820152602660248201527f4e6f6e626c6f636b696e674c7a4170703a2063616c6c6572206d7573742062656044820152650204c7a4170760d41b6064820152608401610e6c565b6117dc8686868080601f01602080910402602001604051908101604052809392919081815260200183838082843760009201919091525050604080516020601f890181900481028201810190925287815289935091508790879081908401838280828437600092019190915250612f4d92505050565b505050505050565b6117dc858585856117f860208701876145fc565b61180860408801602089016145fc565b6118156040890189614cfa565b8080601f016020809104026020016040519081016040528093929190818152602001838380828437600092019190915250612fd492505050565b61185761260b565b61186160006130bc565b565b6001602052600090815260409020805461187c90614c33565b80601f01602080910402602001604051908101604052809291908181526020018280546118a890614c33565b80156118f55780601f106118ca576101008083540402835291602001916118f5565b820191906000526020600020905b8154815290600101906020018083116118d857829003601f168201915b505050505081565b6119a18888888888888080601f0160208091040260200160405190810160405280939291908181526020018383808284376000920191909152508a925061194a91505060208901896145fc565b61195a60408a0160208b016145fc565b61196760408b018b614cfa565b8080601f01602080910402602001604051908101604052809392919081815260200183838082843760009201919091525061310c92505050565b505050505050505050565b7f7a05a596cb0ce7fdea8a1e1ec73be300bdb35097c944ce1897202f7a13122eb26119d6816129b9565b6119de612bf6565b6001600160a01b038316611a345760405162461bcd60e51b815260206004820181905260248201527f4254434d696e65723a206275726e2066726f6d207a65726f20616464726573736044820152606401610e6c565b60008211611a995760405162461bcd60e51b815260206004820152602c60248201527f4254434d696e65723a206275726e20616d6f756e74206d75737420626520677260448201526b06561746572207468616e20360a41b6064820152608401610e6c565b611aa38383612d62565b6001600160a01b038316600090815260106020526040902054611ac99062015180614c8d565b4210611af8576001600160a01b0383166000908152600f60209081526040808320839055601090915290204290555b6001600160a01b0383166000908152600f602052604081208054849290611b20908490614c8d565b90915550611b319050833384612789565b611b3b8383612e0d565b8160116000828254611b4d9190614c8d565b909155505060408051838152600060208201526001600160a01b038516917f86116363a46d877785971d4ccf1d01d89b29d08a8a45f3df4d99f51ee31ca94c91016115c9565b7f65d7a28e3265b37a6474929f336521b332c1681b933f6cb9f3376673440d862a611bbd816129b9565b61147b613208565b6000918252600c602090815260408084206001600160a01b0393909316845291905290205460ff1690565b6000611bfb60095490565b905090565b6060600b805461104990614c33565b61ffff8116600090815260016020526040812080546060929190611c3290614c33565b80601f0160208091040260200160405190810160405280929190818152602001828054611c5e90614c33565b8015611cab5780601f10611c8057610100808354040283529160200191611cab565b820191906000526020600020905b815481529060010190602001808311611c8e57829003601f168201915b505050505090508051600003611d035760405162461bcd60e51b815260206004820152601d60248201527f4c7a4170703a206e6f20747275737465642070617468207265636f72640000006044820152606401610e6c565b611257600060148351611d169190614ca0565b839190613245565b60003381611d2c8286612236565b905083811015611d8c5760405162461bcd60e51b815260206004820152602560248201527f45524332303a2064656372656173656420616c6c6f77616e63652062656c6f77604482015264207a65726f60d81b6064820152608401610e6c565b6111fd8286868403612665565b600080611e168b8b8b8b8b8080601f01602080910402602001604051908101604052809392919081815260200183838082843760009201919091525050604080516020601f8d018190048102820181019092528b81528e93508d9250908c908c908190840183828082843760009201919091525061335292505050565b91509150995099975050505050505050565b611e3061260b565b818130604051602001611e4593929190614d40565b60408051601f1981840301815291815261ffff8516600090815260016020522090611e709082614dac565b507f8c0400cfe2d1199b1a725c78960bcc2a344d869b80590d0f2bd005db15a572ce838383604051611ea493929190614cdc565b60405180910390a1505050565b600033611163818585612803565b611ec761260b565b600480546001600160a01b0319166001600160a01b0383169081179091556040519081527f5db758e995a17ec1ad84bdef7e8c3293a0bd6179bcce400dff5d4c3d87db726b9060200160405180910390a150565b611f2361260b565b6040516332fb62e760e21b81526001600160a01b037f0000000000000000000000000000000000000000000000000000000000000000169063cbed8b9c90611f779088908890889088908890600401614e6b565b600060405180830381600087803b158015611f9157600080fd5b505af11580156119a1573d6000803e3d6000fd5b61ffff86166000908152600560205260408082209051611fc89088908890614c67565b90815260408051602092819003830190206001600160401b038716600090815292529020549050806120485760405162461bcd60e51b815260206004820152602360248201527f4e6f6e626c6f636b696e674c7a4170703a206e6f2073746f726564206d65737360448201526261676560e81b6064820152608401610e6c565b808383604051612059929190614c67565b6040518091039020146120b85760405162461bcd60e51b815260206004820152602160248201527f4e6f6e626c6f636b696e674c7a4170703a20696e76616c6964207061796c6f616044820152601960fa1b6064820152608401610e6c565b61ffff871660009081526005602052604080822090516120db9089908990614c67565b90815260408051602092819003830181206001600160401b038916600090815290845282902093909355601f88018290048202830182019052868252612173918991899089908190840183828082843760009201919091525050604080516020601f8a018190048102820181019092528881528a935091508890889081908401838280828437600092019190915250612f4d92505050565b7fc264d91f3adc5588250e1551f547752ca0cfa8f6b530d243b9f9f4cab10ea8e587878787856040516121aa959493929190614ea4565b60405180910390a150505050505050565b6000828152600c60205260409020600101546121d6816129b9565b6112838383612b3d565b7fa49807205ce4d355092ef5a8a18f56e8913cf4a201fbe287825b095693c2177561220a816129b9565b60405133904780156108fc02916000818181858888f19350505050158015611357573d6000803e3d6000fd5b6001600160a01b03918216600090815260086020908152604080832093909416825291909152205490565b61226961260b565b61ffff83811660008181526002602090815260408083209487168084529482529182902085905581519283528201929092529081018290527f9d5c7c0b934da8fefa9c7760c98383778a12dfbfc0c3b3106518f43fb9508ac090606001611ea4565b33301461231a5760405162461bcd60e51b815260206004820152601f60248201527f4f4654436f72653a2063616c6c6572206d757374206265204f4654436f7265006044820152606401610e6c565b61232530868661340d565b9350846001600160a01b03168a61ffff167fbf551ec93859b170f9b2141bd9298bf3f64322c6f7beb2543a0cb669834118bf8660405161236791815260200190565b60405180910390a3604051633fe79aed60e11b81526001600160a01b03861690637fcf35da9083906123ab908e908e908e908e908e908d908d908d90600401614edf565b600060405180830381600088803b1580156123c557600080fd5b5087f11580156123d9573d6000803e3d6000fd5b505050505050505050505050505050565b6123f261260b565b61ffff83166000908152600160205260409020612410828483614f3a565b507ffa41487ad5d6728f0b19276fa1eddc16558578f5109fc39d2dc33c3230470dab838383604051611ea493929190614cdc565b61244c61260b565b6001600160a01b0381166124b15760405162461bcd60e51b815260206004820152602660248201527f4f776e61626c653a206e6577206f776e657220697320746865207a65726f206160448201526564647265737360d01b6064820152608401610e6c565b61147b816130bc565b604051633d7b2f6f60e21b815261ffff808616600483015284166024820152306044820152606481018290526060907f00000000000000000000000000000000000000000000000000000000000000006001600160a01b03169063f5ecbdbc90608401600060405180830381865afa15801561253a573d6000803e3d6000fd5b505050506040513d6000823e601f3d908101601f191682016040526125629190810190614ff9565b90505b949350505050565b6000806125d05a60966366ad5c8a60e01b89898989604051602401612595949392919061506f565b60408051601f198184030181529190526020810180516001600160e01b03166001600160e01b0319909316929092179091523092919061345f565b91509150816117dc576117dc86868686856134e9565b60006001600160e01b03198216637965db0b60e01b1480611034575061103482613586565b6000546001600160a01b031633146118615760405162461bcd60e51b815260206004820181905260248201527f4f776e61626c653a2063616c6c6572206973206e6f7420746865206f776e65726044820152606401610e6c565b6001600160a01b0383166126c75760405162461bcd60e51b8152602060048201526024808201527f45524332303a20617070726f76652066726f6d20746865207a65726f206164646044820152637265737360e01b6064820152608401610e6c565b6001600160a01b0382166127285760405162461bcd60e51b815260206004820152602260248201527f45524332303a20617070726f766520746f20746865207a65726f206164647265604482015261737360f01b6064820152608401610e6c565b6001600160a01b0383811660008181526008602090815260408083209487168084529482529182902085905590518481527f8c5be1e5ebec7d5bd14f71427d1e84f3dd0314c0f7b2291e5b200ac8c7c3b925910160405180910390a3505050565b60006127958484612236565b905060001981146127fd57818110156127f05760405162461bcd60e51b815260206004820152601d60248201527f45524332303a20696e73756666696369656e7420616c6c6f77616e63650000006044820152606401610e6c565b6127fd8484848403612665565b50505050565b6001600160a01b0383166128675760405162461bcd60e51b815260206004820152602560248201527f45524332303a207472616e736665722066726f6d20746865207a65726f206164604482015264647265737360d81b6064820152608401610e6c565b6001600160a01b0382166128c95760405162461bcd60e51b815260206004820152602360248201527f45524332303a207472616e7366657220746f20746865207a65726f206164647260448201526265737360e81b6064820152608401610e6c565b6128d48383836135bb565b6001600160a01b0383166000908152600760205260409020548181101561294c5760405162461bcd60e51b815260206004820152602660248201527f45524332303a207472616e7366657220616d6f756e7420657863656564732062604482015265616c616e636560d01b6064820152608401610e6c565b6001600160a01b0380851660008181526007602052604080822086860390559286168082529083902080548601905591517fddf252ad1be2c89b69c2b068fc378daa952ba7f163c4a11628f55a4df523b3ef906129ac9086815260200190565b60405180910390a36127fd565b61147b81336135c3565b6129cd8282611bc5565b611357576000828152600c602090815260408083206001600160a01b03851684529091529020805460ff19166001179055612a053390565b6001600160a01b0316816001600160a01b0316837f2f8788117e7eff1d82e926ec794901d17c78024a50270940304540a733656f0d60405160405180910390a45050565b6000806000612a9787612a5b8861361c565b6040805160006020820152602181019390935260c09190911b6001600160c01b0319166041830152805160298184030181526049909201905290565b60405163040a7bb160e41b81529091506001600160a01b037f000000000000000000000000000000000000000000000000000000000000000016906340a7bb1090612aee908b90309086908b908b906004016150ad565b6040805180830381865afa158015612b0a573d6000803e3d6000fd5b505050506040513d601f19601f82011682018060405250810190612b2e9190615101565b92509250509550959350505050565b612b478282611bc5565b15611357576000828152600c602090815260408083206001600160a01b0385168085529252808320805460ff1916905551339285917ff6391f5c32d9c69d2a47ea670b442974b53935d1edc7fd64eb21e047a839171b9190a45050565b612bac6136a2565b600d805460ff191690557f5db9ee0a495bf2e6ff9c91a7834c1ba4fdd244a5e8aa4e537bd38aeae4b073aa335b6040516001600160a01b03909116815260200160405180910390a1565b600d5460ff16156118615760405162461bcd60e51b815260206004820152601060248201526f14185d5cd8589b194e881c185d5cd95960821b6044820152606401610e6c565b6001600160a01b038216612c925760405162461bcd60e51b815260206004820152601f60248201527f45524332303a206d696e7420746f20746865207a65726f2061646472657373006044820152606401610e6c565b612c9e600083836135bb565b8060096000828254612cb09190614c8d565b90915550506001600160a01b0382166000818152600760209081526040808320805486019055518481527fddf252ad1be2c89b69c2b068fc378daa952ba7f163c4a11628f55a4df523b3ef910160405180910390a35050565b6002600e5403612d5b5760405162461bcd60e51b815260206004820152601f60248201527f5265656e7472616e637947756172643a207265656e7472616e742063616c6c006044820152606401610e6c565b6002600e55565b6001600160a01b0382166000908152600f6020908152604080832054601090925290912054612d949062015180614c8d565b4210612d9e575060005b69d3c21bcecceda1000000612db38383614c8d565b11156112835760405162461bcd60e51b815260206004820152602360248201527f4254434d696e65723a204461696c79206275726e206c696d697420657863656560448201526219195960ea1b6064820152608401610e6c565b6001600160a01b038216612e6d5760405162461bcd60e51b815260206004820152602160248201527f45524332303a206275726e2066726f6d20746865207a65726f206164647265736044820152607360f81b6064820152608401610e6c565b612e79826000836135bb565b6001600160a01b03821660009081526007602052604090205481811015612eed5760405162461bcd60e51b815260206004820152602260248201527f45524332303a206275726e20616d6f756e7420657863656564732062616c616e604482015261636560f01b6064820152608401610e6c565b6001600160a01b03831660008181526007602090815260408083208686039055600980548790039055518581529192917fddf252ad1be2c89b69c2b068fc378daa952ba7f163c4a11628f55a4df523b3ef910160405180910390a3505050565b6000612f5982826136eb565b905060ff8116612f7457612f6f85858585613747565b61114e565b60001960ff821601612f8c57612f6f858585856137d7565b60405162461bcd60e51b815260206004820152601c60248201527f4f4654436f72653a20756e6b6e6f776e207061636b65742074797065000000006044820152606401610e6c565b6000612fe2878284816139e5565b612feb85613aba565b509050612ffa88888884613afa565b9050600081116130485760405162461bcd60e51b815260206004820152601960248201527813d19510dbdc994e88185b5bdd5b9d081d1bdbc81cdb585b1b603a1b6044820152606401610e6c565b600061305787612a5b8461361c565b9050613067888287878734613c2a565b86896001600160a01b03168961ffff167fd81fc9b8523134ed613870ed029d6170cbb73aa6a6bc311b9a642689fb9df59a856040516130a891815260200190565b60405180910390a450979650505050505050565b600080546001600160a01b038381166001600160a01b0319831681178455604051919092169283917f8be0079c531659141344cd1fd0a4f28419497f9722a3daafe3b4186f6b6457e09190a35050565b6000613124896001846001600160401b0389166139e5565b61312d87613aba565b50905061313c8a8a8a84613afa565b90506000811161318a5760405162461bcd60e51b815260206004820152601960248201527813d19510dbdc994e88185b5bdd5b9d081d1bdbc81cdb585b1b603a1b6044820152606401610e6c565b60006131a1338a61319a8561361c565b8a8a613dcf565b90506131b18a8287878734613c2a565b888b6001600160a01b03168b61ffff167fd81fc9b8523134ed613870ed029d6170cbb73aa6a6bc311b9a642689fb9df59a856040516131f291815260200190565b60405180910390a4509998505050505050505050565b613210612bf6565b600d805460ff191660011790557f62e78cea01bee320cd4e420270b5ea74000d11b0c9f74754ebdbfc544b05a258612bd93390565b60608161325381601f614c8d565b10156132925760405162461bcd60e51b815260206004820152600e60248201526d736c6963655f6f766572666c6f7760901b6044820152606401610e6c565b61329c8284614c8d565b845110156132e05760405162461bcd60e51b8152602060048201526011602482015270736c6963655f6f75744f66426f756e647360781b6044820152606401610e6c565b6060821580156132ff5760405191506000825260208201604052613349565b6040519150601f8416801560200281840101858101878315602002848b0101015b81831015613338578051835260209283019201613320565b5050858452601f01601f1916604052505b50949350505050565b6000806000613365338a61319a8b61361c565b60405163040a7bb160e41b81529091506001600160a01b037f000000000000000000000000000000000000000000000000000000000000000016906340a7bb10906133bc908d90309086908b908b906004016150ad565b6040805180830381865afa1580156133d8573d6000803e3d6000fd5b505050506040513d601f19601f820116820180604052508101906133fc9190615101565b925092505097509795505050505050565b600033306001600160a01b0386161480159061343b5750806001600160a01b0316856001600160a01b031614155b1561344b5761344b858285612789565b613456858585612803565b50909392505050565b6000606060008060008661ffff166001600160401b0381111561348457613484614710565b6040519080825280601f01601f1916602001820160405280156134ae576020820181803683370190505b50905060008087516020890160008d8df191503d9250868311156134d0578692505b828152826000602083013e909890975095505050505050565b8180519060200120600560008761ffff1661ffff1681526020019081526020016000208560405161351a9190615125565b9081526040805191829003602090810183206001600160401b0388166000908152915220919091557fe183f33de2837795525b4792ca4cd60535bd77c53b7e7030060bfcf5734d6b0c906135779087908790879087908790615141565b60405180910390a15050505050565b60006001600160e01b03198216631f7ecdf760e01b148061103457506301ffc9a760e01b6001600160e01b0319831614611034565b611283612bf6565b6135cd8282611bc5565b611357576135da81613e10565b6135e5836020613e22565b6040516020016135f6929190615193565b60408051601f198184030181529082905262461bcd60e51b8252610e6c91600401614517565b6000806136497f00000000000000000000000000000000000000000000000000000000000000008461521e565b90506001600160401b038111156110345760405162461bcd60e51b815260206004820152601a60248201527f4f4654436f72653a20616d6f756e745344206f766572666c6f770000000000006044820152606401610e6c565b600d5460ff166118615760405162461bcd60e51b815260206004820152601460248201527314185d5cd8589b194e881b9bdd081c185d5cd95960621b6044820152606401610e6c565b60006136f8826001614c8d565b8351101561373e5760405162461bcd60e51b8152602060048201526013602482015272746f55696e74385f6f75744f66426f756e647360681b6044820152606401610e6c565b50016001015190565b60008061375383613fbd565b90925090506001600160a01b03821661376c5761dead91505b600061377782614042565b9050613784878483614077565b9050826001600160a01b03168761ffff167fbf551ec93859b170f9b2141bd9298bf3f64322c6f7beb2543a0cb669834118bf836040516137c691815260200190565b60405180910390a350505050505050565b60008060008060006137e8866140f0565b945094509450945094506000600660008b61ffff1661ffff1681526020019081526020016000208960405161381d9190615125565b90815260408051602092819003830190206001600160401b038b166000908152925281205460ff16915061385085614042565b9050816138be576138628b3083614077565b61ffff8c1660009081526006602052604090819020905191925060019161388a908d90615125565b90815260408051602092819003830190206001600160401b038d16600090815292529020805460ff19169115159190911790555b6001600160a01b0386163b613915576040516001600160a01b03871681527f9aedf5fdba8716db3b6705ca00150643309995d4f818a249ed6dde6677e7792d9060200160405180910390a1505050505050506127fd565b8a8a8a8a8a8a868a60008a613933578b6001600160401b0316613935565b5a5b90506000806139675a609663eaffd49a60e01b8e8e8e8d8d8d8d8d604051602401612595989796959493929190615232565b9150915081156139c0578751602089012060405161ffff8d16907fb8890edbfc1c74692f527444645f95489c3703cc2df42e4a366f5d06fa6cd884906139b2908e908e9086906152a6565b60405180910390a2506139cd565b6139cd8b8b8b8b856134e9565b50505050505050505050505050505050505050505050565b60006139f0836141a7565b61ffff80871660009081526002602090815260408083209389168352929052205490915080613a615760405162461bcd60e51b815260206004820152601a60248201527f4c7a4170703a206d696e4761734c696d6974206e6f74207365740000000000006044820152606401610e6c565b613a6b8382614c8d565b8210156117dc5760405162461bcd60e51b815260206004820152601b60248201527f4c7a4170703a20676173206c696d697420697320746f6f206c6f7700000000006044820152606401610e6c565b600080613ae77f0000000000000000000000000000000000000000000000000000000000000000846152d4565b9050613af38184614ca0565b9150915091565b6000613b04612bf6565b613b0c612d09565b336001600160a01b0386168114613b2857613b28868285612789565b613b328684612d62565b6001600160a01b038616600090815260106020526040902054613b589062015180614c8d565b4210613b87576001600160a01b0386166000908152600f60209081526040808320839055601090915290204290555b6001600160a01b0386166000908152600f602052604081208054859290613baf908490614c8d565b90915550613bbf90508684612e0d565b8260116000828254613bd19190614c8d565b90915550506040805184815261ffff871660208201526001600160a01b038816917f86116363a46d877785971d4ccf1d01d89b29d08a8a45f3df4d99f51ee31ca94c910160405180910390a250506001600e5580612565565b61ffff861660009081526001602052604081208054613c4890614c33565b80601f0160208091040260200160405190810160405280929190818152602001828054613c7490614c33565b8015613cc15780601f10613c9657610100808354040283529160200191613cc1565b820191906000526020600020905b815481529060010190602001808311613ca457829003601f168201915b505050505090508051600003613d325760405162461bcd60e51b815260206004820152603060248201527f4c7a4170703a2064657374696e6174696f6e20636861696e206973206e6f742060448201526f61207472757374656420736f7572636560801b6064820152608401610e6c565b613d3d878751614203565b60405162c5803160e81b81526001600160a01b037f0000000000000000000000000000000000000000000000000000000000000000169063c5803100908490613d94908b9086908c908c908c908c906004016152e8565b6000604051808303818588803b158015613dad57600080fd5b505af1158015613dc1573d6000803e3d6000fd5b505050505050505050505050565b6060600185856001600160a01b0389168587604051602001613df69695949392919061534f565b604051602081830303815290604052905095945050505050565b60606110346001600160a01b03831660145b60606000613e318360026153b0565b613e3c906002614c8d565b6001600160401b03811115613e5357613e53614710565b6040519080825280601f01601f191660200182016040528015613e7d576020820181803683370190505b509050600360fc1b81600081518110613e9857613e986153c7565b60200101906001600160f81b031916908160001a905350600f60fb1b81600181518110613ec757613ec76153c7565b60200101906001600160f81b031916908160001a9053506000613eeb8460026153b0565b613ef6906001614c8d565b90505b6001811115613f6e576f181899199a1a9b1b9c1cb0b131b232b360811b85600f1660108110613f2a57613f2a6153c7565b1a60f81b828281518110613f4057613f406153c7565b60200101906001600160f81b031916908160001a90535060049490941c93613f67816153dd565b9050613ef9565b5083156112575760405162461bcd60e51b815260206004820181905260248201527f537472696e67733a20686578206c656e67746820696e73756666696369656e746044820152606401610e6c565b60008080613fcb84826136eb565b60ff16148015613fdc575082516029145b6140235760405162461bcd60e51b815260206004820152601860248201527713d19510dbdc994e881a5b9d985b1a59081c185e5b1bd85960421b6044820152606401610e6c565b61402e83600d614274565b915061403b8360216142d9565b9050915091565b60006110347f00000000000000000000000000000000000000000000000000000000000000006001600160401b0384166153b0565b6000614081612bf6565b61408b8383612c3c565b816012600082825461409d9190614c8d565b90915550506040805183815261ffff861660208201526001600160a01b038516917f1fa87ff6270a212f3aa153a85700026d5b89935a9363cc01bd4efb702a333830910160405180910390a25092915050565b60008080606081600161410387836136eb565b60ff161461414e5760405162461bcd60e51b815260206004820152601860248201527713d19510dbdc994e881a5b9d985b1a59081c185e5b1bd85960421b6044820152606401610e6c565b61415986600d614274565b93506141668660216142d9565b9250614173866029614336565b94506141808660496142d9565b905061419c60518088516141949190614ca0565b889190613245565b915091939590929450565b60006022825110156141fb5760405162461bcd60e51b815260206004820152601c60248201527f4c7a4170703a20696e76616c69642061646170746572506172616d73000000006044820152606401610e6c565b506022015190565b61ffff82166000908152600360205260408120549081900361422457506127105b808211156112835760405162461bcd60e51b815260206004820181905260248201527f4c7a4170703a207061796c6f61642073697a6520697320746f6f206c617267656044820152606401610e6c565b6000614281826014614c8d565b835110156142c95760405162461bcd60e51b8152602060048201526015602482015274746f416464726573735f6f75744f66426f756e647360581b6044820152606401610e6c565b500160200151600160601b900490565b60006142e6826008614c8d565b8351101561432d5760405162461bcd60e51b8152602060048201526014602482015273746f55696e7436345f6f75744f66426f756e647360601b6044820152606401610e6c565b50016008015190565b6000614343826020614c8d565b8351101561438b5760405162461bcd60e51b8152602060048201526015602482015274746f427974657333325f6f75744f66426f756e647360581b6044820152606401610e6c565b50016020015190565b803561ffff811681146143a657600080fd5b919050565b60008083601f8401126143bd57600080fd5b5081356001600160401b038111156143d457600080fd5b6020830191508360208285010111156143ec57600080fd5b9250929050565b80356001600160401b03811681146143a657600080fd5b6000806000806000806080878903121561442357600080fd5b61442c87614394565b955060208701356001600160401b038082111561444857600080fd5b6144548a838b016143ab565b909750955085915061446860408a016143f3565b9450606089013591508082111561447e57600080fd5b5061448b89828a016143ab565b979a9699509497509295939492505050565b6000602082840312156144af57600080fd5b81356001600160e01b03198116811461125757600080fd5b60005b838110156144e25781810151838201526020016144ca565b50506000910152565b600081518084526145038160208601602086016144c7565b601f01601f19169290920160200192915050565b60208152600061125760208301846144eb565b60006020828403121561453c57600080fd5b61125782614394565b6001600160a01b038116811461147b57600080fd5b6000806040838503121561456d57600080fd5b823561457881614545565b946020939093013593505050565b6000806040838503121561459957600080fd5b61457883614394565b6000806000606084860312156145b757600080fd5b83356145c281614545565b925060208401356145d281614545565b929592945050506040919091013590565b6000602082840312156145f557600080fd5b5035919050565b60006020828403121561460e57600080fd5b813561125781614545565b6000806040838503121561462c57600080fd5b82359150602083013561463e81614545565b809150509250929050565b803580151581146143a657600080fd5b60008060008060008060a0878903121561467257600080fd5b61467b87614394565b9550602087013594506040870135935061469760608801614649565b925060808701356001600160401b038111156146b257600080fd5b61448b89828a016143ab565b6000806000604084860312156146d357600080fd5b6146dc84614394565b925060208401356001600160401b038111156146f757600080fd5b614703868287016143ab565b9497909650939450505050565b634e487b7160e01b600052604160045260246000fd5b604051601f8201601f191681016001600160401b038111828210171561474e5761474e614710565b604052919050565b60006001600160401b0382111561476f5761476f614710565b50601f01601f191660200190565b60008060006060848603121561479257600080fd5b61479b84614394565b925060208401356001600160401b038111156147b657600080fd5b8401601f810186136147c757600080fd5b80356147da6147d582614756565b614726565b8181528760208385010111156147ef57600080fd5b81602084016020830137600060208383010152809450505050614814604085016143f3565b90509250925092565b60006060828403121561482f57600080fd5b50919050565b600080600080600060a0868803121561484d57600080fd5b853561485881614545565b945061486660208701614394565b9350604086013592506060860135915060808601356001600160401b0381111561488f57600080fd5b61489b8882890161481d565b9150509295509295909350565b60008060008060008060008060e0898b0312156148c457600080fd5b88356148cf81614545565b97506148dd60208a01614394565b9650604089013595506060890135945060808901356001600160401b038082111561490757600080fd5b6149138c838d016143ab565b909650945084915061492760a08c016143f3565b935060c08b013591508082111561493d57600080fd5b5061494a8b828c0161481d565b9150509295985092959890939650565b6000806040838503121561496d57600080fd5b61497683614394565b915061498460208401614394565b90509250929050565b600080600080600080600080600060e08a8c0312156149ab57600080fd5b6149b48a614394565b985060208a0135975060408a0135965060608a01356001600160401b03808211156149de57600080fd5b6149ea8d838e016143ab565b90985096508691506149fe60808d016143f3565b9550614a0c60a08d01614649565b945060c08c0135915080821115614a2257600080fd5b50614a2f8c828d016143ab565b915080935050809150509295985092959850929598565b600080600080600060808688031215614a5e57600080fd5b614a6786614394565b9450614a7560208701614394565b93506040860135925060608601356001600160401b03811115614a9757600080fd5b614aa3888289016143ab565b969995985093965092949392505050565b60008060408385031215614ac757600080fd5b8235614ad281614545565b9150602083013561463e81614545565b600080600060608486031215614af757600080fd5b614b0084614394565b9250614b0e60208501614394565b9150604084013590509250925092565b6000806000806000806000806000806101008b8d031215614b3e57600080fd5b614b478b614394565b995060208b01356001600160401b0380821115614b6357600080fd5b614b6f8e838f016143ab565b909b509950899150614b8360408e016143f3565b985060608d0135975060808d01359150614b9c82614545565b90955060a08c0135945060c08c01359080821115614bb957600080fd5b50614bc68d828e016143ab565b9150809450508092505060e08b013590509295989b9194979a5092959850565b60008060008060808587031215614bfc57600080fd5b614c0585614394565b9350614c1360208601614394565b92506040850135614c2381614545565b9396929550929360600135925050565b600181811c90821680614c4757607f821691505b60208210810361482f57634e487b7160e01b600052602260045260246000fd5b8183823760009101908152919050565b634e487b7160e01b600052601160045260246000fd5b8082018082111561103457611034614c77565b8181038181111561103457611034614c77565b81835281816020850137506000828201602090810191909152601f909101601f19169091010190565b61ffff84168152604060208201526000612562604083018486614cb3565b6000808335601e19843603018112614d1157600080fd5b8301803591506001600160401b03821115614d2b57600080fd5b6020019150368190038213156143ec57600080fd5b8284823760609190911b6bffffffffffffffffffffffff19169101908152601401919050565b601f82111561128357600081815260208120601f850160051c81016020861015614d8d5750805b601f850160051c820191505b818110156117dc57828155600101614d99565b81516001600160401b03811115614dc557614dc5614710565b614dd981614dd38454614c33565b84614d66565b602080601f831160018114614e0e5760008415614df65750858301515b600019600386901b1c1916600185901b1785556117dc565b600085815260208120601f198616915b82811015614e3d57888601518255948401946001909101908401614e1e565b5085821015614e5b5787850151600019600388901b60f8161c191681555b5050505050600190811b01905550565b600061ffff808816835280871660208401525084604083015260806060830152614e99608083018486614cb3565b979650505050505050565b61ffff86168152608060208201526000614ec2608083018688614cb3565b6001600160401b0394909416604083015250606001529392505050565b61ffff8916815260c060208201526000614efd60c08301898b614cb3565b6001600160401b038816604084015286606084015285608084015282810360a0840152614f2b818587614cb3565b9b9a5050505050505050505050565b6001600160401b03831115614f5157614f51614710565b614f6583614f5f8354614c33565b83614d66565b6000601f841160018114614f995760008515614f815750838201355b600019600387901b1c1916600186901b17835561114e565b600083815260209020601f19861690835b82811015614fca5786850135825560209485019460019092019101614faa565b5086821015614fe75760001960f88860031b161c19848701351681555b505060018560011b0183555050505050565b60006020828403121561500b57600080fd5b81516001600160401b0381111561502157600080fd5b8201601f8101841361503257600080fd5b80516150406147d582614756565b81815285602083850101111561505557600080fd5b6150668260208301602086016144c7565b95945050505050565b61ffff8516815260806020820152600061508c60808301866144eb565b6001600160401b03851660408401528281036060840152614e9981856144eb565b61ffff861681526001600160a01b038516602082015260a0604082018190526000906150db908301866144eb565b841515606084015282810360808401526150f581856144eb565b98975050505050505050565b6000806040838503121561511457600080fd5b505080516020909101519092909150565b600082516151378184602087016144c7565b9190910192915050565b61ffff8616815260a06020820152600061515e60a08301876144eb565b6001600160401b0386166040840152828103606084015261517f81866144eb565b905082810360808401526150f581856144eb565b7f416363657373436f6e74726f6c3a206163636f756e74200000000000000000008152600083516151cb8160178501602088016144c7565b7001034b99036b4b9b9b4b733903937b6329607d1b60179184019182015283516151fc8160288401602088016144c7565b01602801949350505050565b634e487b7160e01b600052601260045260246000fd5b60008261522d5761522d615208565b500490565b600061010061ffff8b1683528060208401526152508184018b6144eb565b6001600160401b038a166040850152606084018990526001600160a01b038816608085015260a0840187905283810360c0850152905061529081866144eb565b9150508260e08301529998505050505050505050565b6060815260006152b960608301866144eb565b6001600160401b039490941660208301525060400152919050565b6000826152e3576152e3615208565b500690565b61ffff8716815260c06020820152600061530560c08301886144eb565b828103604084015261531781886144eb565b6001600160a01b0387811660608601528616608085015283810360a0850152905061534281856144eb565b9998505050505050505050565b60ff60f81b8760f81b16815285600182015260006001600160401b0360c01b808760c01b166021840152856029840152808560c01b16604984015250825161539e8160518501602087016144c7565b91909101605101979650505050505050565b808202811582820484141761103457611034614c77565b634e487b7160e01b600052603260045260246000fd5b6000816153ec576153ec614c77565b50600019019056fea2646970667358221220760de1db4804e3aeb073af6ebafd82b5a075b16cd864a1a8c45d63588362743664736f6c63430008140033",
  "linkReferences": {},
  "deployedLinkReferences": {}
}